{
  "_format": "hh3-artifact-1",
  "contractName": "CredentialRegistry",
  "sourceName": "contracts/CredentialRegistry.sol",
  "abi": [
    {
      "inputs": [
        {
          "internalType": "address",
          "name": "didRegistryAddress",
          "type": "address"
        }
      ],
      "stateMutability": "nonpayable",
      "type": "constructor"
    },
    {
      "inputs": [],
      "name": "CredentialAlreadyExists",
      "type": "error"
    },
    {
      "inputs": [],
      "name": "CredentialAlreadyRevoked",
      "type": "error"
    },
    {
      "inputs": [],
      "name": "CredentialNotFound",
      "type": "error"
    },
    {
      "inputs": [],
      "name": "HolderDIDNotFound",
      "type": "error"
    },
    {
      "inputs": [],
      "name": "InvalidInput",
      "type": "error"
    },
    {
      "inputs": [],
      "name": "IssuerDIDNotFound",
      "type": "error"
    },
    {
      "inputs": [],
      "name": "NotAuthorizedSender",
      "type": "error"
    },
    {
      "inputs": [],
      "name": "NotIssuerOwner",
      "type": "error"
    },
    {
      "anonymous": false,
      "inputs": [
        {
          "indexed": false,
          "internalType": "string",
          "name": "credentialId",
          "type": "string"
        },
        {
          "indexed": false,
          "internalType": "string",
          "name": "issuerDid",
          "type": "string"
        },
        {
          "indexed": false,
          "internalType": "string",
          "name": "holderDid",
          "type": "string"
        }
      ],
      "name": "CredentialIssued",
      "type": "event"
    },
    {
      "anonymous": false,
      "inputs": [
        {
          "indexed": false,
          "internalType": "string",
          "name": "credentialId",
          "type": "string"
        }
      ],
      "name": "CredentialRevoked",
      "type": "event"
    },
    {
      "anonymous": false,
      "inputs": [
        {
          "indexed": false,
          "internalType": "address",
          "name": "relayer",
          "type": "address"
        },
        {
          "indexed": false,
          "internalType": "bool",
          "name": "isAuthorized",
          "type": "bool"
        }
      ],
      "name": "RelayerStatusChanged",
      "type": "event"
    },
    {
      "inputs": [],
      "name": "admin",
      "outputs": [
        {
          "internalType": "address",
          "name": "",
          "type": "address"
        }
      ],
      "stateMutability": "view",
      "type": "function"
    },
    {
      "inputs": [
        {
          "internalType": "address",
          "name": "",
          "type": "address"
        }
      ],
      "name": "authorizedRelayers",
      "outputs": [
        {
          "internalType": "bool",
          "name": "",
          "type": "bool"
        }
      ],
      "stateMutability": "view",
      "type": "function"
    },
    {
      "inputs": [
        {
          "internalType": "string",
          "name": "credentialId",
          "type": "string"
        }
      ],
      "name": "credentialExists",
      "outputs": [
        {
          "internalType": "bool",
          "name": "",
          "type": "bool"
        }
      ],
      "stateMutability": "view",
      "type": "function"
    },
    {
      "inputs": [],
      "name": "didRegistry",
      "outputs": [
        {
          "internalType": "contract IDIDRegistry",
          "name": "",
          "type": "address"
        }
      ],
      "stateMutability": "view",
      "type": "function"
    },
    {
      "inputs": [
        {
          "internalType": "string",
          "name": "credentialId",
          "type": "string"
        }
      ],
      "name": "getCredential",
      "outputs": [
        {
          "internalType": "string",
          "name": "",
          "type": "string"
        },
        {
          "internalType": "bytes32",
          "name": "",
          "type": "bytes32"
        },
        {
          "internalType": "string",
          "name": "",
          "type": "string"
        },
        {
          "internalType": "string",
          "name": "",
          "type": "string"
        },
        {
          "internalType": "uint256",
          "name": "",
          "type": "uint256"
        },
        {
          "internalType": "uint256",
          "name": "",
          "type": "uint256"
        },
        {
          "internalType": "uint256",
          "name": "",
          "type": "uint256"
        },
        {
          "internalType": "enum CredentialRegistry.Status",
          "name": "",
          "type": "uint8"
        },
        {
          "internalType": "string",
          "name": "",
          "type": "string"
        },
        {
          "internalType": "bool",
          "name": "",
          "type": "bool"
        }
      ],
      "stateMutability": "view",
      "type": "function"
    },
    {
      "inputs": [
        {
          "internalType": "string",
          "name": "credentialId",
          "type": "string"
        }
      ],
      "name": "getCredentialHash",
      "outputs": [
        {
          "internalType": "bytes32",
          "name": "",
          "type": "bytes32"
        }
      ],
      "stateMutability": "view",
      "type": "function"
    },
    {
      "inputs": [
        {
          "internalType": "string",
          "name": "credentialId",
          "type": "string"
        },
        {
          "internalType": "bytes32",
          "name": "credentialHash",
          "type": "bytes32"
        },
        {
          "internalType": "string",
          "name": "issuerDid",
          "type": "string"
        },
        {
          "internalType": "string",
          "name": "holderDid",
          "type": "string"
        },
        {
          "internalType": "uint256",
          "name": "expiresAt",
          "type": "uint256"
        },
        {
          "internalType": "string",
          "name": "signatureAlgorithm",
          "type": "string"
        }
      ],
      "name": "issueCredential",
      "outputs": [],
      "stateMutability": "nonpayable",
      "type": "function"
    },
    {
      "inputs": [
        {
          "internalType": "string",
          "name": "credentialId",
          "type": "string"
        }
      ],
      "name": "revokeCredential",
      "outputs": [],
      "stateMutability": "nonpayable",
      "type": "function"
    },
    {
      "inputs": [
        {
          "internalType": "address",
          "name": "_relayer",
          "type": "address"
        },
        {
          "internalType": "bool",
          "name": "_isAuthorized",
          "type": "bool"
        }
      ],
      "name": "setRelayerStatus",
      "outputs": [],
      "stateMutability": "nonpayable",
      "type": "function"
    }
  ],
  "bytecode": "0x608060405234801561000f575f5ffd5b50604051611ef2380380611ef283398181016040528101906100319190610169565b805f5f6101000a81548173ffffffffffffffffffffffffffffffffffffffff021916908373ffffffffffffffffffffffffffffffffffffffff1602179055503360015f6101000a81548173ffffffffffffffffffffffffffffffffffffffff021916908373ffffffffffffffffffffffffffffffffffffffff160217905550600160025f3373ffffffffffffffffffffffffffffffffffffffff1673ffffffffffffffffffffffffffffffffffffffff1681526020019081526020015f205f6101000a81548160ff02191690831515021790555050610194565b5f5ffd5b5f73ffffffffffffffffffffffffffffffffffffffff82169050919050565b5f6101388261010f565b9050919050565b6101488161012e565b8114610152575f5ffd5b50565b5f815190506101638161013f565b92915050565b5f6020828403121561017e5761017d61010b565b5b5f61018b84828501610155565b91505092915050565b611d51806101a15f395ff3fe608060405234801561000f575f5ffd5b5060043610610091575f3560e01c80635e9a2d28116100645780635e9a2d281461012f57806382c4e3291461014b578063860158341461017b578063d091187f14610197578063f851a440146101d057610091565b806329e295c51461009557806341a3b586146100c55780634e7692bb146100e1578063577f9fb114610111575b5f5ffd5b6100af60048036038101906100aa91906112a5565b6101ee565b6040516100bc91906112ea565b60405180910390f35b6100df60048036038101906100da91906113ca565b61020b565b005b6100fb60048036038101906100f691906114d4565b6108cb565b60405161010891906112ea565b60405180910390f35b610119610940565b604051610126919061157a565b60405180910390f35b610149600480360381019061014491906114d4565b610964565b005b610165600480360381019061016091906114d4565b610c48565b60405161017291906115a2565b60405180910390f35b610195600480360381019061019091906115e5565b610d17565b005b6101b160048036038101906101ac91906114d4565b610e2e565b6040516101c79a99989796959493929190611715565b60405180910390f35b6101d861121e565b6040516101e591906117da565b60405180910390f35b6002602052805f5260405f205f915054906101000a900460ff1681565b5f8a8a9050148061021d57505f5f1b88145b8061022a57505f87879050145b8061023757505f85859050145b8061024457505f82829050145b1561027b576040517fb4fa3fb300000000000000000000000000000000000000000000000000000000815260040160405180910390fd5b5f831415801561028b5750428311155b156102c2576040517fb4fa3fb300000000000000000000000000000000000000000000000000000000815260040160405180910390fd5b60038a8a6040516102d492919061182f565b90815260200160405180910390206009015f9054906101000a900460ff1615610329576040517f724efe9100000000000000000000000000000000000000000000000000000000815260040160405180910390fd5b5f5f9054906101000a900473ffffffffffffffffffffffffffffffffffffffff1673ffffffffffffffffffffffffffffffffffffffff166320dd57a988886040518363ffffffff1660e01b8152600401610384929190611873565b602060405180830381865afa15801561039f573d5f5f3e3d5ffd5b505050506040513d601f19601f820116820180604052508101906103c391906118a9565b6103f9576040517ff55807fb00000000000000000000000000000000000000000000000000000000815260040160405180910390fd5b5f5f9054906101000a900473ffffffffffffffffffffffffffffffffffffffff1673ffffffffffffffffffffffffffffffffffffffff166320dd57a986866040518363ffffffff1660e01b8152600401610454929190611873565b602060405180830381865afa15801561046f573d5f5f3e3d5ffd5b505050506040513d601f19601f8201168201806040525081019061049391906118a9565b6104c9576040517f9bc2404b00000000000000000000000000000000000000000000000000000000815260040160405180910390fd5b5f3373ffffffffffffffffffffffffffffffffffffffff165f5f9054906101000a900473ffffffffffffffffffffffffffffffffffffffff1673ffffffffffffffffffffffffffffffffffffffff16634aaf4a128a8a6040518363ffffffff1660e01b815260040161053c929190611873565b602060405180830381865afa158015610557573d5f5f3e3d5ffd5b505050506040513d601f19601f8201168201806040525081019061057b91906118e8565b73ffffffffffffffffffffffffffffffffffffffff161490505f60025f3373ffffffffffffffffffffffffffffffffffffffff1673ffffffffffffffffffffffffffffffffffffffff1681526020019081526020015f205f9054906101000a900460ff169050811580156105ed575080155b15610624576040517f1b45e5d200000000000000000000000000000000000000000000000000000000815260040160405180910390fd5b6040518061014001604052808d8d8080601f0160208091040260200160405190810160405280939291908181526020018383808284375f81840152601f19601f8201169050808301925050505050505081526020018b81526020018a8a8080601f0160208091040260200160405190810160405280939291908181526020018383808284375f81840152601f19601f82011690508083019250505050505050815260200188888080601f0160208091040260200160405190810160405280939291908181526020018383808284375f81840152601f19601f8201169050808301925050505050505081526020014281526020018681526020015f81526020015f6001811115610736576107356116a2565b5b815260200185858080601f0160208091040260200160405190810160405280939291908181526020018383808284375f81840152601f19601f8201169050808301925050505050505081526020016001151581525060038d8d60405161079d92919061182f565b90815260200160405180910390205f820151815f0190816107be9190611b34565b506020820151816001015560408201518160020190816107de9190611b34565b5060608201518160030190816107f49190611b34565b506080820151816004015560a0820151816005015560c0820151816006015560e0820151816007015f6101000a81548160ff0219169083600181111561083d5761083c6116a2565b5b02179055506101008201518160080190816108589190611b34565b50610120820151816009015f6101000a81548160ff0219169083151502179055509050507f0e6a4bfdad0dec411057ff80cfe722c3cffed190a916432465a6e492ec802e498c8c8b8b8b8b6040516108b596959493929190611c03565b60405180910390a1505050505050505050505050565b5f5f8383905003610908576040517fb4fa3fb300000000000000000000000000000000000000000000000000000000815260040160405180910390fd5b6003838360405161091a92919061182f565b90815260200160405180910390206009015f9054906101000a900460ff16905092915050565b5f5f9054906101000a900473ffffffffffffffffffffffffffffffffffffffff1681565b5f6003838360405161097792919061182f565b908152602001604051809103902090505f83839050036109c3576040517fb4fa3fb300000000000000000000000000000000000000000000000000000000815260040160405180910390fd5b806009015f9054906101000a900460ff16610a0a576040517fb7199d4c00000000000000000000000000000000000000000000000000000000815260040160405180910390fd5b600180811115610a1d57610a1c6116a2565b5b816007015f9054906101000a900460ff166001811115610a4057610a3f6116a2565b5b03610a77576040517f7c78296200000000000000000000000000000000000000000000000000000000815260040160405180910390fd5b5f3373ffffffffffffffffffffffffffffffffffffffff165f5f9054906101000a900473ffffffffffffffffffffffffffffffffffffffff1673ffffffffffffffffffffffffffffffffffffffff16634aaf4a12846002016040518263ffffffff1660e01b8152600401610aeb9190611cd4565b602060405180830381865afa158015610b06573d5f5f3e3d5ffd5b505050506040513d601f19601f82011682018060405250810190610b2a91906118e8565b73ffffffffffffffffffffffffffffffffffffffff161490505f60025f3373ffffffffffffffffffffffffffffffffffffffff1673ffffffffffffffffffffffffffffffffffffffff1681526020019081526020015f205f9054906101000a900460ff16905081158015610b9c575080155b15610bd3576040517f1b45e5d200000000000000000000000000000000000000000000000000000000815260040160405180910390fd5b6001836007015f6101000a81548160ff02191690836001811115610bfa57610bf96116a2565b5b02179055504283600601819055507f19d981dae71c0e172d789c8bef41062792bc14fa2e555bba0bae3c104d2b2a418585604051610c39929190611873565b60405180910390a15050505050565b5f5f8383905003610c85576040517fb4fa3fb300000000000000000000000000000000000000000000000000000000815260040160405180910390fd5b60038383604051610c9792919061182f565b90815260200160405180910390206009015f9054906101000a900460ff16610ceb576040517fb7199d4c00000000000000000000000000000000000000000000000000000000815260040160405180910390fd5b60038383604051610cfd92919061182f565b908152602001604051809103902060010154905092915050565b60015f9054906101000a900473ffffffffffffffffffffffffffffffffffffffff1673ffffffffffffffffffffffffffffffffffffffff163373ffffffffffffffffffffffffffffffffffffffff1614610d9d576040517fdfd0a7f000000000000000000000000000000000000000000000000000000000815260040160405180910390fd5b8060025f8473ffffffffffffffffffffffffffffffffffffffff1673ffffffffffffffffffffffffffffffffffffffff1681526020019081526020015f205f6101000a81548160ff0219169083151502179055507f1eee43db36ef00705c8e30d4dd7caaa5f0464ff3de7e4a5c0baf344e7a723b378282604051610e22929190611cf4565b60405180910390a15050565b60605f6060805f5f5f5f60605f5f8c8c905003610e77576040517fb4fa3fb300000000000000000000000000000000000000000000000000000000815260040160405180910390fd5b60038c8c604051610e8992919061182f565b90815260200160405180910390206009015f9054906101000a900460ff16610edd576040517fb7199d4c00000000000000000000000000000000000000000000000000000000815260040160405180910390fd5b5f60038d8d604051610ef092919061182f565b9081526020016040518091039020604051806101400160405290815f82018054610f199061196d565b80601f0160208091040260200160405190810160405280929190818152602001828054610f459061196d565b8015610f905780601f10610f6757610100808354040283529160200191610f90565b820191905f5260205f20905b815481529060010190602001808311610f7357829003601f168201915b5050505050815260200160018201548152602001600282018054610fb39061196d565b80601f0160208091040260200160405190810160405280929190818152602001828054610fdf9061196d565b801561102a5780601f106110015761010080835404028352916020019161102a565b820191905f5260205f20905b81548152906001019060200180831161100d57829003601f168201915b505050505081526020016003820180546110439061196d565b80601f016020809104026020016040519081016040528092919081815260200182805461106f9061196d565b80156110ba5780601f10611091576101008083540402835291602001916110ba565b820191905f5260205f20905b81548152906001019060200180831161109d57829003601f168201915b50505050508152602001600482015481526020016005820154815260200160068201548152602001600782015f9054906101000a900460ff166001811115611105576111046116a2565b5b6001811115611117576111166116a2565b5b815260200160088201805461112b9061196d565b80601f01602080910402602001604051908101604052809291908181526020018280546111579061196d565b80156111a25780601f10611179576101008083540402835291602001916111a2565b820191905f5260205f20905b81548152906001019060200180831161118557829003601f168201915b50505050508152602001600982015f9054906101000a900460ff1615151515815250509050805f015181602001518260400151836060015184608001518560a001518660c001518760e001518861010001518961012001519a509a509a509a509a509a509a509a509a509a50509295989b9194979a5092959850565b60015f9054906101000a900473ffffffffffffffffffffffffffffffffffffffff1681565b5f5ffd5b5f5ffd5b5f73ffffffffffffffffffffffffffffffffffffffff82169050919050565b5f6112748261124b565b9050919050565b6112848161126a565b811461128e575f5ffd5b50565b5f8135905061129f8161127b565b92915050565b5f602082840312156112ba576112b9611243565b5b5f6112c784828501611291565b91505092915050565b5f8115159050919050565b6112e4816112d0565b82525050565b5f6020820190506112fd5f8301846112db565b92915050565b5f5ffd5b5f5ffd5b5f5ffd5b5f5f83601f84011261132457611323611303565b5b8235905067ffffffffffffffff81111561134157611340611307565b5b60208301915083600182028301111561135d5761135c61130b565b5b9250929050565b5f819050919050565b61137681611364565b8114611380575f5ffd5b50565b5f813590506113918161136d565b92915050565b5f819050919050565b6113a981611397565b81146113b3575f5ffd5b50565b5f813590506113c4816113a0565b92915050565b5f5f5f5f5f5f5f5f5f5f60c08b8d0312156113e8576113e7611243565b5b5f8b013567ffffffffffffffff81111561140557611404611247565b5b6114118d828e0161130f565b9a509a505060206114248d828e01611383565b98505060408b013567ffffffffffffffff81111561144557611444611247565b5b6114518d828e0161130f565b975097505060608b013567ffffffffffffffff81111561147457611473611247565b5b6114808d828e0161130f565b955095505060806114938d828e016113b6565b93505060a08b013567ffffffffffffffff8111156114b4576114b3611247565b5b6114c08d828e0161130f565b92509250509295989b9194979a5092959850565b5f5f602083850312156114ea576114e9611243565b5b5f83013567ffffffffffffffff81111561150757611506611247565b5b6115138582860161130f565b92509250509250929050565b5f819050919050565b5f61154261153d6115388461124b565b61151f565b61124b565b9050919050565b5f61155382611528565b9050919050565b5f61156482611549565b9050919050565b6115748161155a565b82525050565b5f60208201905061158d5f83018461156b565b92915050565b61159c81611364565b82525050565b5f6020820190506115b55f830184611593565b92915050565b6115c4816112d0565b81146115ce575f5ffd5b50565b5f813590506115df816115bb565b92915050565b5f5f604083850312156115fb576115fa611243565b5b5f61160885828601611291565b9250506020611619858286016115d1565b9150509250929050565b5f81519050919050565b5f82825260208201905092915050565b8281835e5f83830152505050565b5f601f19601f8301169050919050565b5f61166582611623565b61166f818561162d565b935061167f81856020860161163d565b6116888161164b565b840191505092915050565b61169c81611397565b82525050565b7f4e487b71000000000000000000000000000000000000000000000000000000005f52602160045260245ffd5b600281106116e0576116df6116a2565b5b50565b5f8190506116f0826116cf565b919050565b5f6116ff826116e3565b9050919050565b61170f816116f5565b82525050565b5f610140820190508181035f83015261172e818d61165b565b905061173d602083018c611593565b818103604083015261174f818b61165b565b90508181036060830152611763818a61165b565b90506117726080830189611693565b61177f60a0830188611693565b61178c60c0830187611693565b61179960e0830186611706565b8181036101008301526117ac818561165b565b90506117bc6101208301846112db565b9b9a5050505050505050505050565b6117d48161126a565b82525050565b5f6020820190506117ed5f8301846117cb565b92915050565b5f81905092915050565b828183375f83830152505050565b5f61181683856117f3565b93506118238385846117fd565b82840190509392505050565b5f61183b82848661180b565b91508190509392505050565b5f611852838561162d565b935061185f8385846117fd565b6118688361164b565b840190509392505050565b5f6020820190508181035f83015261188c818486611847565b90509392505050565b5f815190506118a3816115bb565b92915050565b5f602082840312156118be576118bd611243565b5b5f6118cb84828501611895565b91505092915050565b5f815190506118e28161127b565b92915050565b5f602082840312156118fd576118fc611243565b5b5f61190a848285016118d4565b91505092915050565b7f4e487b71000000000000000000000000000000000000000000000000000000005f52604160045260245ffd5b7f4e487b71000000000000000000000000000000000000000000000000000000005f52602260045260245ffd5b5f600282049050600182168061198457607f821691505b60208210810361199757611996611940565b5b50919050565b5f819050815f5260205f209050919050565b5f6020601f8301049050919050565b5f82821b905092915050565b5f600883026119f97fffffffffffffffffffffffffffffffffffffffffffffffffffffffffffffffff826119be565b611a0386836119be565b95508019841693508086168417925050509392505050565b5f611a35611a30611a2b84611397565b61151f565b611397565b9050919050565b5f819050919050565b611a4e83611a1b565b611a62611a5a82611a3c565b8484546119ca565b825550505050565b5f5f905090565b611a79611a6a565b611a84818484611a45565b505050565b5b81811015611aa757611a9c5f82611a71565b600181019050611a8a565b5050565b601f821115611aec57611abd8161199d565b611ac6846119af565b81016020851015611ad5578190505b611ae9611ae1856119af565b830182611a89565b50505b505050565b5f82821c905092915050565b5f611b0c5f1984600802611af1565b1980831691505092915050565b5f611b248383611afd565b9150826002028217905092915050565b611b3d82611623565b67ffffffffffffffff811115611b5657611b55611913565b5b611b60825461196d565b611b6b828285611aab565b5f60209050601f831160018114611b9c575f8415611b8a578287015190505b611b948582611b19565b865550611bfb565b601f198416611baa8661199d565b5f5b82811015611bd157848901518255600182019150602085019450602081019050611bac565b86831015611bee5784890151611bea601f891682611afd565b8355505b6001600288020188555050505b505050505050565b5f6060820190508181035f830152611c1c81888a611847565b90508181036020830152611c31818688611847565b90508181036040830152611c46818486611847565b9050979650505050505050565b5f8154611c5f8161196d565b611c69818661162d565b9450600182165f8114611c835760018114611c9957611ccb565b60ff198316865281151560200286019350611ccb565b611ca28561199d565b5f5b83811015611cc357815481890152600182019150602081019050611ca4565b808801955050505b50505092915050565b5f6020820190508181035f830152611cec8184611c53565b905092915050565b5f604082019050611d075f8301856117cb565b611d1460208301846112db565b939250505056fea2646970667358221220ae45b725454a8074a69af0ff889c44524593ec6706041a6638fba9b4769f5c8964736f6c634300081c0033",
  "linkReferences": {},
  "deployedLinkReferences": {},
  "immutableReferences": {},
  "inputSourceName": "project/contracts/CredentialRegistry.sol",
  "buildInfoId": "solc-0_8_28-1443febb537b78bbc1e09a5d0ad3a5aed8ae2871"
}