{
  "_format": "hh3-artifact-1",
  "contractName": "CredentialRegistry",
  "sourceName": "contracts/CredentialRegistry.sol",
  "abi": [
    {
      "inputs": [
        {
          "internalType": "address",
          "name": "didRegistryAddress",
          "type": "address"
        }
      ],
      "stateMutability": "nonpayable",
      "type": "constructor"
    },
    {
      "inputs": [],
      "name": "CredentialAlreadyExists",
      "type": "error"
    },
    {
      "inputs": [],
      "name": "CredentialAlreadyRevoked",
      "type": "error"
    },
    {
      "inputs": [],
      "name": "CredentialNotFound",
      "type": "error"
    },
    {
      "inputs": [],
      "name": "HolderDIDNotFound",
      "type": "error"
    },
    {
      "inputs": [],
      "name": "InvalidInput",
      "type": "error"
    },
    {
      "inputs": [],
      "name": "IssuerDIDNotFound",
      "type": "error"
    },
    {
      "inputs": [],
      "name": "NotIssuerOwner",
      "type": "error"
    },
    {
      "anonymous": false,
      "inputs": [
        {
          "indexed": false,
          "internalType": "string",
          "name": "credentialId",
          "type": "string"
        },
        {
          "indexed": false,
          "internalType": "string",
          "name": "issuerDid",
          "type": "string"
        },
        {
          "indexed": false,
          "internalType": "string",
          "name": "holderDid",
          "type": "string"
        }
      ],
      "name": "CredentialIssued",
      "type": "event"
    },
    {
      "anonymous": false,
      "inputs": [
        {
          "indexed": false,
          "internalType": "string",
          "name": "credentialId",
          "type": "string"
        }
      ],
      "name": "CredentialRevoked",
      "type": "event"
    },
    {
      "inputs": [
        {
          "internalType": "string",
          "name": "credentialId",
          "type": "string"
        }
      ],
      "name": "credentialExists",
      "outputs": [
        {
          "internalType": "bool",
          "name": "",
          "type": "bool"
        }
      ],
      "stateMutability": "view",
      "type": "function"
    },
    {
      "inputs": [],
      "name": "didRegistry",
      "outputs": [
        {
          "internalType": "contract IDIDRegistry",
          "name": "",
          "type": "address"
        }
      ],
      "stateMutability": "view",
      "type": "function"
    },
    {
      "inputs": [
        {
          "internalType": "string",
          "name": "credentialId",
          "type": "string"
        }
      ],
      "name": "getCredential",
      "outputs": [
        {
          "internalType": "string",
          "name": "",
          "type": "string"
        },
        {
          "internalType": "bytes32",
          "name": "",
          "type": "bytes32"
        },
        {
          "internalType": "string",
          "name": "",
          "type": "string"
        },
        {
          "internalType": "string",
          "name": "",
          "type": "string"
        },
        {
          "internalType": "uint256",
          "name": "",
          "type": "uint256"
        },
        {
          "internalType": "uint256",
          "name": "",
          "type": "uint256"
        },
        {
          "internalType": "uint256",
          "name": "",
          "type": "uint256"
        },
        {
          "internalType": "enum CredentialRegistry.Status",
          "name": "",
          "type": "uint8"
        },
        {
          "internalType": "string",
          "name": "",
          "type": "string"
        },
        {
          "internalType": "bool",
          "name": "",
          "type": "bool"
        }
      ],
      "stateMutability": "view",
      "type": "function"
    },
    {
      "inputs": [
        {
          "internalType": "string",
          "name": "credentialId",
          "type": "string"
        }
      ],
      "name": "getCredentialHash",
      "outputs": [
        {
          "internalType": "bytes32",
          "name": "",
          "type": "bytes32"
        }
      ],
      "stateMutability": "view",
      "type": "function"
    },
    {
      "inputs": [
        {
          "internalType": "string",
          "name": "credentialId",
          "type": "string"
        },
        {
          "internalType": "bytes32",
          "name": "credentialHash",
          "type": "bytes32"
        },
        {
          "internalType": "string",
          "name": "issuerDid",
          "type": "string"
        },
        {
          "internalType": "string",
          "name": "holderDid",
          "type": "string"
        },
        {
          "internalType": "uint256",
          "name": "expiresAt",
          "type": "uint256"
        },
        {
          "internalType": "string",
          "name": "signatureAlgorithm",
          "type": "string"
        }
      ],
      "name": "issueCredential",
      "outputs": [],
      "stateMutability": "nonpayable",
      "type": "function"
    },
    {
      "inputs": [
        {
          "internalType": "string",
          "name": "credentialId",
          "type": "string"
        }
      ],
      "name": "revokeCredential",
      "outputs": [],
      "stateMutability": "nonpayable",
      "type": "function"
    }
  ],
  "bytecode": "0x608060405234801561000f575f5ffd5b50604051611acb380380611acb833981810160405281019061003191906100d4565b805f5f6101000a81548173ffffffffffffffffffffffffffffffffffffffff021916908373ffffffffffffffffffffffffffffffffffffffff160217905550506100ff565b5f5ffd5b5f73ffffffffffffffffffffffffffffffffffffffff82169050919050565b5f6100a38261007a565b9050919050565b6100b381610099565b81146100bd575f5ffd5b50565b5f815190506100ce816100aa565b92915050565b5f602082840312156100e9576100e8610076565b5b5f6100f6848285016100c0565b91505092915050565b6119bf8061010c5f395ff3fe608060405234801561000f575f5ffd5b5060043610610060575f3560e01c806341a3b586146100645780634e7692bb14610080578063577f9fb1146100b05780635e9a2d28146100ce57806382c4e329146100ea578063d091187f1461011a575b5f5ffd5b61007e60048036038101906100799190611060565b610153565b005b61009a6004803603810190610095919061116a565b6107b4565b6040516100a791906111cf565b60405180910390f35b6100b8610829565b6040516100c59190611262565b60405180910390f35b6100e860048036038101906100e3919061116a565b61084d565b005b61010460048036038101906100ff919061116a565b610ad2565b604051610111919061128a565b60405180910390f35b610134600480360381019061012f919061116a565b610ba1565b60405161014a9a99989796959493929190611395565b60405180910390f35b5f8a8a9050148061016557505f5f1b88145b8061017257505f87879050145b8061017f57505f85859050145b8061018c57505f82829050145b156101c3576040517fb4fa3fb300000000000000000000000000000000000000000000000000000000815260040160405180910390fd5b5f83141580156101d35750428311155b1561020a576040517fb4fa3fb300000000000000000000000000000000000000000000000000000000815260040160405180910390fd5b60018a8a60405161021c929190611487565b90815260200160405180910390206009015f9054906101000a900460ff1615610271576040517f724efe9100000000000000000000000000000000000000000000000000000000815260040160405180910390fd5b5f5f9054906101000a900473ffffffffffffffffffffffffffffffffffffffff1673ffffffffffffffffffffffffffffffffffffffff166320dd57a988886040518363ffffffff1660e01b81526004016102cc9291906114cb565b602060405180830381865afa1580156102e7573d5f5f3e3d5ffd5b505050506040513d601f19601f8201168201806040525081019061030b9190611517565b610341576040517ff55807fb00000000000000000000000000000000000000000000000000000000815260040160405180910390fd5b5f5f9054906101000a900473ffffffffffffffffffffffffffffffffffffffff1673ffffffffffffffffffffffffffffffffffffffff166320dd57a986866040518363ffffffff1660e01b815260040161039c9291906114cb565b602060405180830381865afa1580156103b7573d5f5f3e3d5ffd5b505050506040513d601f19601f820116820180604052508101906103db9190611517565b610411576040517f9bc2404b00000000000000000000000000000000000000000000000000000000815260040160405180910390fd5b3373ffffffffffffffffffffffffffffffffffffffff165f5f9054906101000a900473ffffffffffffffffffffffffffffffffffffffff1673ffffffffffffffffffffffffffffffffffffffff16634aaf4a1289896040518363ffffffff1660e01b81526004016104839291906114cb565b602060405180830381865afa15801561049e573d5f5f3e3d5ffd5b505050506040513d601f19601f820116820180604052508101906104c2919061157d565b73ffffffffffffffffffffffffffffffffffffffff161461050f576040517f1b45e5d200000000000000000000000000000000000000000000000000000000815260040160405180910390fd5b6040518061014001604052808b8b8080601f0160208091040260200160405190810160405280939291908181526020018383808284375f81840152601f19601f82011690508083019250505050505050815260200189815260200188888080601f0160208091040260200160405190810160405280939291908181526020018383808284375f81840152601f19601f82011690508083019250505050505050815260200186868080601f0160208091040260200160405190810160405280939291908181526020018383808284375f81840152601f19601f8201169050808301925050505050505081526020014281526020018481526020015f81526020015f600181111561062157610620611322565b5b815260200183838080601f0160208091040260200160405190810160405280939291908181526020018383808284375f81840152601f19601f8201169050808301925050505050505081526020016001151581525060018b8b604051610688929190611487565b90815260200160405180910390205f820151815f0190816106a991906117c9565b506020820151816001015560408201518160020190816106c991906117c9565b5060608201518160030190816106df91906117c9565b506080820151816004015560a0820151816005015560c0820151816006015560e0820151816007015f6101000a81548160ff0219169083600181111561072857610727611322565b5b021790555061010082015181600801908161074391906117c9565b50610120820151816009015f6101000a81548160ff0219169083151502179055509050507f0e6a4bfdad0dec411057ff80cfe722c3cffed190a916432465a6e492ec802e498a8a898989896040516107a096959493929190611898565b60405180910390a150505050505050505050565b5f5f83839050036107f1576040517fb4fa3fb300000000000000000000000000000000000000000000000000000000815260040160405180910390fd5b60018383604051610803929190611487565b90815260200160405180910390206009015f9054906101000a900460ff16905092915050565b5f5f9054906101000a900473ffffffffffffffffffffffffffffffffffffffff1681565b5f60018383604051610860929190611487565b908152602001604051809103902090505f83839050036108ac576040517fb4fa3fb300000000000000000000000000000000000000000000000000000000815260040160405180910390fd5b806009015f9054906101000a900460ff166108f3576040517fb7199d4c00000000000000000000000000000000000000000000000000000000815260040160405180910390fd5b60018081111561090657610905611322565b5b816007015f9054906101000a900460ff16600181111561092957610928611322565b5b03610960576040517f7c78296200000000000000000000000000000000000000000000000000000000815260040160405180910390fd5b3373ffffffffffffffffffffffffffffffffffffffff165f5f9054906101000a900473ffffffffffffffffffffffffffffffffffffffff1673ffffffffffffffffffffffffffffffffffffffff16634aaf4a12836002016040518263ffffffff1660e01b81526004016109d39190611969565b602060405180830381865afa1580156109ee573d5f5f3e3d5ffd5b505050506040513d601f19601f82011682018060405250810190610a12919061157d565b73ffffffffffffffffffffffffffffffffffffffff1614610a5f576040517f1b45e5d200000000000000000000000000000000000000000000000000000000815260040160405180910390fd5b6001816007015f6101000a81548160ff02191690836001811115610a8657610a85611322565b5b02179055504281600601819055507f19d981dae71c0e172d789c8bef41062792bc14fa2e555bba0bae3c104d2b2a418383604051610ac59291906114cb565b60405180910390a1505050565b5f5f8383905003610b0f576040517fb4fa3fb300000000000000000000000000000000000000000000000000000000815260040160405180910390fd5b60018383604051610b21929190611487565b90815260200160405180910390206009015f9054906101000a900460ff16610b75576040517fb7199d4c00000000000000000000000000000000000000000000000000000000815260040160405180910390fd5b60018383604051610b87929190611487565b908152602001604051809103902060010154905092915050565b60605f6060805f5f5f5f60605f5f8c8c905003610bea576040517fb4fa3fb300000000000000000000000000000000000000000000000000000000815260040160405180910390fd5b60018c8c604051610bfc929190611487565b90815260200160405180910390206009015f9054906101000a900460ff16610c50576040517fb7199d4c00000000000000000000000000000000000000000000000000000000815260040160405180910390fd5b5f60018d8d604051610c63929190611487565b9081526020016040518091039020604051806101400160405290815f82018054610c8c90611602565b80601f0160208091040260200160405190810160405280929190818152602001828054610cb890611602565b8015610d035780601f10610cda57610100808354040283529160200191610d03565b820191905f5260205f20905b815481529060010190602001808311610ce657829003601f168201915b5050505050815260200160018201548152602001600282018054610d2690611602565b80601f0160208091040260200160405190810160405280929190818152602001828054610d5290611602565b8015610d9d5780601f10610d7457610100808354040283529160200191610d9d565b820191905f5260205f20905b815481529060010190602001808311610d8057829003601f168201915b50505050508152602001600382018054610db690611602565b80601f0160208091040260200160405190810160405280929190818152602001828054610de290611602565b8015610e2d5780601f10610e0457610100808354040283529160200191610e2d565b820191905f5260205f20905b815481529060010190602001808311610e1057829003601f168201915b50505050508152602001600482015481526020016005820154815260200160068201548152602001600782015f9054906101000a900460ff166001811115610e7857610e77611322565b5b6001811115610e8a57610e89611322565b5b8152602001600882018054610e9e90611602565b80601f0160208091040260200160405190810160405280929190818152602001828054610eca90611602565b8015610f155780601f10610eec57610100808354040283529160200191610f15565b820191905f5260205f20905b815481529060010190602001808311610ef857829003601f168201915b50505050508152602001600982015f9054906101000a900460ff1615151515815250509050805f015181602001518260400151836060015184608001518560a001518660c001518760e001518861010001518961012001519a509a509a509a509a509a509a509a509a509a50509295989b9194979a5092959850565b5f5ffd5b5f5ffd5b5f5ffd5b5f5ffd5b5f5ffd5b5f5f83601f840112610fba57610fb9610f99565b5b8235905067ffffffffffffffff811115610fd757610fd6610f9d565b5b602083019150836001820283011115610ff357610ff2610fa1565b5b9250929050565b5f819050919050565b61100c81610ffa565b8114611016575f5ffd5b50565b5f8135905061102781611003565b92915050565b5f819050919050565b61103f8161102d565b8114611049575f5ffd5b50565b5f8135905061105a81611036565b92915050565b5f5f5f5f5f5f5f5f5f5f60c08b8d03121561107e5761107d610f91565b5b5f8b013567ffffffffffffffff81111561109b5761109a610f95565b5b6110a78d828e01610fa5565b9a509a505060206110ba8d828e01611019565b98505060408b013567ffffffffffffffff8111156110db576110da610f95565b5b6110e78d828e01610fa5565b975097505060608b013567ffffffffffffffff81111561110a57611109610f95565b5b6111168d828e01610fa5565b955095505060806111298d828e0161104c565b93505060a08b013567ffffffffffffffff81111561114a57611149610f95565b5b6111568d828e01610fa5565b92509250509295989b9194979a5092959850565b5f5f602083850312156111805761117f610f91565b5b5f83013567ffffffffffffffff81111561119d5761119c610f95565b5b6111a985828601610fa5565b92509250509250929050565b5f8115159050919050565b6111c9816111b5565b82525050565b5f6020820190506111e25f8301846111c0565b92915050565b5f73ffffffffffffffffffffffffffffffffffffffff82169050919050565b5f819050919050565b5f61122a611225611220846111e8565b611207565b6111e8565b9050919050565b5f61123b82611210565b9050919050565b5f61124c82611231565b9050919050565b61125c81611242565b82525050565b5f6020820190506112755f830184611253565b92915050565b61128481610ffa565b82525050565b5f60208201905061129d5f83018461127b565b92915050565b5f81519050919050565b5f82825260208201905092915050565b8281835e5f83830152505050565b5f601f19601f8301169050919050565b5f6112e5826112a3565b6112ef81856112ad565b93506112ff8185602086016112bd565b611308816112cb565b840191505092915050565b61131c8161102d565b82525050565b7f4e487b71000000000000000000000000000000000000000000000000000000005f52602160045260245ffd5b600281106113605761135f611322565b5b50565b5f8190506113708261134f565b919050565b5f61137f82611363565b9050919050565b61138f81611375565b82525050565b5f610140820190508181035f8301526113ae818d6112db565b90506113bd602083018c61127b565b81810360408301526113cf818b6112db565b905081810360608301526113e3818a6112db565b90506113f26080830189611313565b6113ff60a0830188611313565b61140c60c0830187611313565b61141960e0830186611386565b81810361010083015261142c81856112db565b905061143c6101208301846111c0565b9b9a5050505050505050505050565b5f81905092915050565b828183375f83830152505050565b5f61146e838561144b565b935061147b838584611455565b82840190509392505050565b5f611493828486611463565b91508190509392505050565b5f6114aa83856112ad565b93506114b7838584611455565b6114c0836112cb565b840190509392505050565b5f6020820190508181035f8301526114e481848661149f565b90509392505050565b6114f6816111b5565b8114611500575f5ffd5b50565b5f81519050611511816114ed565b92915050565b5f6020828403121561152c5761152b610f91565b5b5f61153984828501611503565b91505092915050565b5f61154c826111e8565b9050919050565b61155c81611542565b8114611566575f5ffd5b50565b5f8151905061157781611553565b92915050565b5f6020828403121561159257611591610f91565b5b5f61159f84828501611569565b91505092915050565b7f4e487b71000000000000000000000000000000000000000000000000000000005f52604160045260245ffd5b7f4e487b71000000000000000000000000000000000000000000000000000000005f52602260045260245ffd5b5f600282049050600182168061161957607f821691505b60208210810361162c5761162b6115d5565b5b50919050565b5f819050815f5260205f209050919050565b5f6020601f8301049050919050565b5f82821b905092915050565b5f6008830261168e7fffffffffffffffffffffffffffffffffffffffffffffffffffffffffffffffff82611653565b6116988683611653565b95508019841693508086168417925050509392505050565b5f6116ca6116c56116c08461102d565b611207565b61102d565b9050919050565b5f819050919050565b6116e3836116b0565b6116f76116ef826116d1565b84845461165f565b825550505050565b5f5f905090565b61170e6116ff565b6117198184846116da565b505050565b5b8181101561173c576117315f82611706565b60018101905061171f565b5050565b601f8211156117815761175281611632565b61175b84611644565b8101602085101561176a578190505b61177e61177685611644565b83018261171e565b50505b505050565b5f82821c905092915050565b5f6117a15f1984600802611786565b1980831691505092915050565b5f6117b98383611792565b9150826002028217905092915050565b6117d2826112a3565b67ffffffffffffffff8111156117eb576117ea6115a8565b5b6117f58254611602565b611800828285611740565b5f60209050601f831160018114611831575f841561181f578287015190505b61182985826117ae565b865550611890565b601f19841661183f86611632565b5f5b8281101561186657848901518255600182019150602085019450602081019050611841565b86831015611883578489015161187f601f891682611792565b8355505b6001600288020188555050505b505050505050565b5f6060820190508181035f8301526118b181888a61149f565b905081810360208301526118c681868861149f565b905081810360408301526118db81848661149f565b9050979650505050505050565b5f81546118f481611602565b6118fe81866112ad565b9450600182165f8114611918576001811461192e57611960565b60ff198316865281151560200286019350611960565b61193785611632565b5f5b8381101561195857815481890152600182019150602081019050611939565b808801955050505b50505092915050565b5f6020820190508181035f83015261198181846118e8565b90509291505056fea2646970667358221220825db793a2d4117c3b6d4e2dda5a83cf82620c1487daeb504211c9c9b759880864736f6c634300081c0033",
  "linkReferences": {},
  "deployedLinkReferences": {},
  "immutableReferences": {},
  "inputSourceName": "project/contracts/CredentialRegistry.sol",
  "buildInfoId": "solc-0_8_28-d8843e509c9bae4fd6838ea571d295eb00a2e2be"
}