{
  "_format": "hh3-artifact-1",
  "contractName": "DIDRegistry",
  "sourceName": "contracts/DIDRegistry.sol",
  "abi": [
    {
      "inputs": [],
      "name": "DIDAlreadyExists",
      "type": "error"
    },
    {
      "inputs": [],
      "name": "DIDNotFound",
      "type": "error"
    },
    {
      "inputs": [],
      "name": "InvalidInput",
      "type": "error"
    },
    {
      "inputs": [],
      "name": "WalletAlreadyHasDID",
      "type": "error"
    },
    {
      "anonymous": false,
      "inputs": [
        {
          "indexed": false,
          "internalType": "string",
          "name": "did",
          "type": "string"
        },
        {
          "indexed": false,
          "internalType": "address",
          "name": "owner",
          "type": "address"
        }
      ],
      "name": "DIDRegistered",
      "type": "event"
    },
    {
      "inputs": [
        {
          "internalType": "string",
          "name": "did",
          "type": "string"
        }
      ],
      "name": "didExists",
      "outputs": [
        {
          "internalType": "bool",
          "name": "",
          "type": "bool"
        }
      ],
      "stateMutability": "view",
      "type": "function"
    },
    {
      "inputs": [
        {
          "internalType": "string",
          "name": "did",
          "type": "string"
        }
      ],
      "name": "getDID",
      "outputs": [
        {
          "internalType": "string",
          "name": "",
          "type": "string"
        },
        {
          "internalType": "address",
          "name": "",
          "type": "address"
        },
        {
          "internalType": "string",
          "name": "",
          "type": "string"
        },
        {
          "internalType": "string",
          "name": "",
          "type": "string"
        },
        {
          "internalType": "uint256",
          "name": "",
          "type": "uint256"
        },
        {
          "internalType": "bool",
          "name": "",
          "type": "bool"
        }
      ],
      "stateMutability": "view",
      "type": "function"
    },
    {
      "inputs": [
        {
          "internalType": "address",
          "name": "owner",
          "type": "address"
        }
      ],
      "name": "getDidByOwner",
      "outputs": [
        {
          "internalType": "string",
          "name": "",
          "type": "string"
        }
      ],
      "stateMutability": "view",
      "type": "function"
    },
    {
      "inputs": [
        {
          "internalType": "string",
          "name": "did",
          "type": "string"
        }
      ],
      "name": "getOwner",
      "outputs": [
        {
          "internalType": "address",
          "name": "",
          "type": "address"
        }
      ],
      "stateMutability": "view",
      "type": "function"
    },
    {
      "inputs": [
        {
          "internalType": "string",
          "name": "did",
          "type": "string"
        },
        {
          "internalType": "string",
          "name": "publicKey",
          "type": "string"
        },
        {
          "internalType": "string",
          "name": "keyAlgorithm",
          "type": "string"
        }
      ],
      "name": "registerDID",
      "outputs": [],
      "stateMutability": "nonpayable",
      "type": "function"
    }
  ],
  "bytecode": "0x6080604052348015600e575f5ffd5b506114888061001c5f395ff3fe608060405234801561000f575f5ffd5b5060043610610055575f3560e01c806320dd57a9146100595780634aaf4a1214610089578063caa0ce9c146100b9578063e0783898146100d5578063f67b6cb91461010a575b5f5ffd5b610073600480360381019061006e9190610cdb565b61013a565b6040516100809190610d40565b60405180910390f35b6100a3600480360381019061009e9190610cdb565b6101ae565b6040516100b09190610d98565b60405180910390f35b6100d360048036038101906100ce9190610db1565b610489565b005b6100ef60048036038101906100ea9190610cdb565b610838565b60405161010196959493929190610ee9565b60405180910390f35b610124600480360381019061011f9190610f87565b610b40565b6040516101319190610fb2565b60405180910390f35b5f5f8383905003610177576040517fb4fa3fb300000000000000000000000000000000000000000000000000000000815260040160405180910390fd5b5f838360405161018892919061100e565b90815260200160405180910390206005015f9054906101000a900460ff16905092915050565b5f5f83839050036101eb576040517fb4fa3fb300000000000000000000000000000000000000000000000000000000815260040160405180910390fd5b5f5f84846040516101fd92919061100e565b90815260200160405180910390206040518060c00160405290815f8201805461022590611053565b80601f016020809104026020016040519081016040528092919081815260200182805461025190611053565b801561029c5780601f106102735761010080835404028352916020019161029c565b820191905f5260205f20905b81548152906001019060200180831161027f57829003601f168201915b50505050508152602001600182015f9054906101000a900473ffffffffffffffffffffffffffffffffffffffff1673ffffffffffffffffffffffffffffffffffffffff1673ffffffffffffffffffffffffffffffffffffffff16815260200160028201805461030a90611053565b80601f016020809104026020016040519081016040528092919081815260200182805461033690611053565b80156103815780601f1061035857610100808354040283529160200191610381565b820191905f5260205f20905b81548152906001019060200180831161036457829003601f168201915b5050505050815260200160038201805461039a90611053565b80601f01602080910402602001604051908101604052809291908181526020018280546103c690611053565b80156104115780601f106103e857610100808354040283529160200191610411565b820191905f5260205f20905b8154815290600101906020018083116103f457829003601f168201915b5050505050815260200160048201548152602001600582015f9054906101000a900460ff16151515158152505090508060a0015161047b576040517f426b82e400000000000000000000000000000000000000000000000000000000815260040160405180910390fd5b806020015191505092915050565b5f86869050148061049c57505f84849050145b806104a957505f82829050145b156104e0576040517fb4fa3fb300000000000000000000000000000000000000000000000000000000815260040160405180910390fd5b5f86866040516104f192919061100e565b90815260200160405180910390206005015f9054906101000a900460ff1615610546576040517f338c38da00000000000000000000000000000000000000000000000000000000815260040160405180910390fd5b5f60015f3373ffffffffffffffffffffffffffffffffffffffff1673ffffffffffffffffffffffffffffffffffffffff1681526020019081526020015f20805461058f90611053565b9050146105c8576040517f4b200d3f00000000000000000000000000000000000000000000000000000000815260040160405180910390fd5b6040518060c0016040528087878080601f0160208091040260200160405190810160405280939291908181526020018383808284375f81840152601f19601f8201169050808301925050505050505081526020013373ffffffffffffffffffffffffffffffffffffffff16815260200185858080601f0160208091040260200160405190810160405280939291908181526020018383808284375f81840152601f19601f82011690508083019250505050505050815260200183838080601f0160208091040260200160405190810160405280939291908181526020018383808284375f81840152601f19601f820116905080830192505050505050508152602001428152602001600115158152505f87876040516106e892919061100e565b90815260200160405180910390205f820151815f0190816107099190611250565b506020820151816001015f6101000a81548173ffffffffffffffffffffffffffffffffffffffff021916908373ffffffffffffffffffffffffffffffffffffffff16021790555060408201518160020190816107659190611250565b50606082015181600301908161077b9190611250565b506080820151816004015560a0820151816005015f6101000a81548160ff021916908315150217905550905050858560015f3373ffffffffffffffffffffffffffffffffffffffff1673ffffffffffffffffffffffffffffffffffffffff1681526020019081526020015f2091826107f4929190611329565b507fd59e4d670f6e249831d6f8ce560f47ced54b3f4203e2d0050dc495fd6b919dd286863360405161082893929190611422565b60405180910390a1505050505050565b60605f6060805f5f5f888890500361087c576040517fb4fa3fb300000000000000000000000000000000000000000000000000000000815260040160405180910390fd5b5f5f898960405161088e92919061100e565b90815260200160405180910390206040518060c00160405290815f820180546108b690611053565b80601f01602080910402602001604051908101604052809291908181526020018280546108e290611053565b801561092d5780601f106109045761010080835404028352916020019161092d565b820191905f5260205f20905b81548152906001019060200180831161091057829003601f168201915b50505050508152602001600182015f9054906101000a900473ffffffffffffffffffffffffffffffffffffffff1673ffffffffffffffffffffffffffffffffffffffff1673ffffffffffffffffffffffffffffffffffffffff16815260200160028201805461099b90611053565b80601f01602080910402602001604051908101604052809291908181526020018280546109c790611053565b8015610a125780601f106109e957610100808354040283529160200191610a12565b820191905f5260205f20905b8154815290600101906020018083116109f557829003601f168201915b50505050508152602001600382018054610a2b90611053565b80601f0160208091040260200160405190810160405280929190818152602001828054610a5790611053565b8015610aa25780601f10610a7957610100808354040283529160200191610aa2565b820191905f5260205f20905b815481529060010190602001808311610a8557829003601f168201915b5050505050815260200160048201548152602001600582015f9054906101000a900460ff16151515158152505090508060a00151610b0c576040517f426b82e400000000000000000000000000000000000000000000000000000000815260040160405180910390fd5b805f015181602001518260400151836060015184608001518560a00151965096509650965096509650509295509295509295565b60605f73ffffffffffffffffffffffffffffffffffffffff168273ffffffffffffffffffffffffffffffffffffffff1603610ba7576040517fb4fa3fb300000000000000000000000000000000000000000000000000000000815260040160405180910390fd5b60015f8373ffffffffffffffffffffffffffffffffffffffff1673ffffffffffffffffffffffffffffffffffffffff1681526020019081526020015f208054610bef90611053565b80601f0160208091040260200160405190810160405280929190818152602001828054610c1b90611053565b8015610c665780601f10610c3d57610100808354040283529160200191610c66565b820191905f5260205f20905b815481529060010190602001808311610c4957829003601f168201915b50505050509050919050565b5f5ffd5b5f5ffd5b5f5ffd5b5f5ffd5b5f5ffd5b5f5f83601f840112610c9b57610c9a610c7a565b5b8235905067ffffffffffffffff811115610cb857610cb7610c7e565b5b602083019150836001820283011115610cd457610cd3610c82565b5b9250929050565b5f5f60208385031215610cf157610cf0610c72565b5b5f83013567ffffffffffffffff811115610d0e57610d0d610c76565b5b610d1a85828601610c86565b92509250509250929050565b5f8115159050919050565b610d3a81610d26565b82525050565b5f602082019050610d535f830184610d31565b92915050565b5f73ffffffffffffffffffffffffffffffffffffffff82169050919050565b5f610d8282610d59565b9050919050565b610d9281610d78565b82525050565b5f602082019050610dab5f830184610d89565b92915050565b5f5f5f5f5f5f60608789031215610dcb57610dca610c72565b5b5f87013567ffffffffffffffff811115610de857610de7610c76565b5b610df489828a01610c86565b9650965050602087013567ffffffffffffffff811115610e1757610e16610c76565b5b610e2389828a01610c86565b9450945050604087013567ffffffffffffffff811115610e4657610e45610c76565b5b610e5289828a01610c86565b92509250509295509295509295565b5f81519050919050565b5f82825260208201905092915050565b8281835e5f83830152505050565b5f601f19601f8301169050919050565b5f610ea382610e61565b610ead8185610e6b565b9350610ebd818560208601610e7b565b610ec681610e89565b840191505092915050565b5f819050919050565b610ee381610ed1565b82525050565b5f60c0820190508181035f830152610f018189610e99565b9050610f106020830188610d89565b8181036040830152610f228187610e99565b90508181036060830152610f368186610e99565b9050610f456080830185610eda565b610f5260a0830184610d31565b979650505050505050565b610f6681610d78565b8114610f70575f5ffd5b50565b5f81359050610f8181610f5d565b92915050565b5f60208284031215610f9c57610f9b610c72565b5b5f610fa984828501610f73565b91505092915050565b5f6020820190508181035f830152610fca8184610e99565b905092915050565b5f81905092915050565b828183375f83830152505050565b5f610ff58385610fd2565b9350611002838584610fdc565b82840190509392505050565b5f61101a828486610fea565b91508190509392505050565b7f4e487b71000000000000000000000000000000000000000000000000000000005f52602260045260245ffd5b5f600282049050600182168061106a57607f821691505b60208210810361107d5761107c611026565b5b50919050565b7f4e487b71000000000000000000000000000000000000000000000000000000005f52604160045260245ffd5b5f819050815f5260205f209050919050565b5f6020601f8301049050919050565b5f82821b905092915050565b5f6008830261110c7fffffffffffffffffffffffffffffffffffffffffffffffffffffffffffffffff826110d1565b61111686836110d1565b95508019841693508086168417925050509392505050565b5f819050919050565b5f61115161114c61114784610ed1565b61112e565b610ed1565b9050919050565b5f819050919050565b61116a83611137565b61117e61117682611158565b8484546110dd565b825550505050565b5f5f905090565b611195611186565b6111a0818484611161565b505050565b5b818110156111c3576111b85f8261118d565b6001810190506111a6565b5050565b601f821115611208576111d9816110b0565b6111e2846110c2565b810160208510156111f1578190505b6112056111fd856110c2565b8301826111a5565b50505b505050565b5f82821c905092915050565b5f6112285f198460080261120d565b1980831691505092915050565b5f6112408383611219565b9150826002028217905092915050565b61125982610e61565b67ffffffffffffffff81111561127257611271611083565b5b61127c8254611053565b6112878282856111c7565b5f60209050601f8311600181146112b8575f84156112a6578287015190505b6112b08582611235565b865550611317565b601f1984166112c6866110b0565b5f5b828110156112ed578489015182556001820191506020850194506020810190506112c8565b8683101561130a5784890151611306601f891682611219565b8355505b6001600288020188555050505b505050505050565b5f82905092915050565b611333838361131f565b67ffffffffffffffff81111561134c5761134b611083565b5b6113568254611053565b6113618282856111c7565b5f601f83116001811461138e575f841561137c578287013590505b6113868582611235565b8655506113ed565b601f19841661139c866110b0565b5f5b828110156113c35784890135825560018201915060208501945060208101905061139e565b868310156113e057848901356113dc601f891682611219565b8355505b6001600288020188555050505b50505050505050565b5f6114018385610e6b565b935061140e838584610fdc565b61141783610e89565b840190509392505050565b5f6040820190508181035f83015261143b8185876113f6565b905061144a6020830184610d89565b94935050505056fea264697066735822122012ecfd6e642069f5ad724c52954f629676e5aa6db74ac3d1acf39d446515742264736f6c634300081c0033",
  "linkReferences": {},
  "deployedLinkReferences": {},
  "immutableReferences": {},
  "inputSourceName": "project/contracts/DIDRegistry.sol",
  "buildInfoId": "solc-0_8_28-d8843e509c9bae4fd6838ea571d295eb00a2e2be"
}